{
  "transactions": [
    {
      "hash": "0xe76ef31127a3c74e7719b1007362c213dffc665672d35603fb029284fba4a35a",
      "transactionType": "CALL",
      "contractName": null,
      "contractAddress": "0xCAD8EfdF86252FB024F4E03cC1Fa44f8130d2FAf",
      "function": "grantRole(bytes32,address)",
      "arguments": [
        "0xc30f007ba88184a2af73fb442cfac292aa54837e5929d0d24188903703ab54b8",
        "0x225b791581185B73Eb52156942369843E8B0Eec7"
      ],
      "transaction": {
        "type": "0x02",
        "from": "0x2b480c63bde7c764cadbaa8b181405d770728128",
        "to": "0xcad8efdf86252fb024f4e03cc1fa44f8130d2faf",
        "gas": "0x11506",
        "value": "0x0",
        "data": "0x2f2ff15dc30f007ba88184a2af73fb442cfac292aa54837e5929d0d24188903703ab54b8000000000000000000000000225b791581185b73eb52156942369843e8b0eec7",
        "nonce": "0x21",
        "accessList": []
      },
      "additionalContracts": [],
      "isFixedGasLimit": false
    },
    {
      "hash": "0xd69f230a8be0d31be36040a2ec3866d39270a61fd06adf32a4caf6c7f3b9df55",
      "transactionType": "CALL",
      "contractName": null,
      "contractAddress": "0xCAD8EfdF86252FB024F4E03cC1Fa44f8130d2FAf",
      "function": "grantRole(bytes32,address)",
      "arguments": [
        "0x0000000000000000000000000000000000000000000000000000000000000000",
        "0x225b791581185B73Eb52156942369843E8B0Eec7"
      ],
      "transaction": {
        "type": "0x02",
        "from": "0x2b480c63bde7c764cadbaa8b181405d770728128",
        "to": "0xcad8efdf86252fb024f4e03cc1fa44f8130d2faf",
        "gas": "0x11304",
        "value": "0x0",
        "data": "0x2f2ff15d0000000000000000000000000000000000000000000000000000000000000000000000000000000000000000225b791581185b73eb52156942369843e8b0eec7",
        "nonce": "0x22",
        "accessList": []
      },
      "additionalContracts": [],
      "isFixedGasLimit": false
    }
  ],
  "receipts": [
    {
      "transactionHash": "0xe76ef31127a3c74e7719b1007362c213dffc665672d35603fb029284fba4a35a",
      "transactionIndex": "0x6",
      "blockHash": "0x25404725e3047d35da301492169e6f6ee932e926cb558ccf61a3a7da917ff852",
      "blockNumber": "0xf0cc61",
      "from": "0x2B480c63bDe7C764cadBaA8b181405D770728128",
      "to": "0xCAD8EfdF86252FB024F4E03cC1Fa44f8130d2FAf",
      "cumulativeGasUsed": "0xbb678",
      "gasUsed": "0xc890",
      "contractAddress": null,
      "logs": [
        {
          "address": "0xCAD8EfdF86252FB024F4E03cC1Fa44f8130d2FAf",
          "topics": [
            "0x2f8788117e7eff1d82e926ec794901d17c78024a50270940304540a733656f0d",
            "0xc30f007ba88184a2af73fb442cfac292aa54837e5929d0d24188903703ab54b8",
            "0x000000000000000000000000225b791581185b73eb52156942369843e8b0eec7",
            "0x0000000000000000000000002b480c63bde7c764cadbaa8b181405d770728128"
          ],
          "data": "0x",
          "blockHash": "0x25404725e3047d35da301492169e6f6ee932e926cb558ccf61a3a7da917ff852",
          "blockNumber": "0xf0cc61",
          "transactionHash": "0xe76ef31127a3c74e7719b1007362c213dffc665672d35603fb029284fba4a35a",
          "transactionIndex": "0x6",
          "logIndex": "0xf",
          "removed": false
        }
      ],
      "status": "0x1",
      "logsBloom": "0x00000004000000000000080000000000000000008000000000000000000000000008000000000000000000004000000000000000000000000000000000000000000000000000000000000000000000000000000000000000000000000000000000000000000000000000000000000000000000080000000000000000000000000000000000000000000000000000000000000000010000000000040002000000000000000000000000000000000000000000000020000000001000000000008000000000000000000000000000000000000040000000000100000000000000000002000000000000000000000000000000000000000000000000000000000000",
      "type": "0x2",
      "effectiveGasPrice": "0x258"
    },
    {
      "transactionHash": "0xd69f230a8be0d31be36040a2ec3866d39270a61fd06adf32a4caf6c7f3b9df55",
      "transactionIndex": "0x7",
      "blockHash": "0x25404725e3047d35da301492169e6f6ee932e926cb558ccf61a3a7da917ff852",
      "blockNumber": "0xf0cc61",
      "from": "0x2B480c63bDe7C764cadBaA8b181405D770728128",
      "to": "0xCAD8EfdF86252FB024F4E03cC1Fa44f8130d2FAf",
      "cumulativeGasUsed": "0xc7d94",
      "gasUsed": "0xc71c",
      "contractAddress": null,
      "logs": [
        {
          "address": "0xCAD8EfdF86252FB024F4E03cC1Fa44f8130d2FAf",
          "topics": [
            "0x2f8788117e7eff1d82e926ec794901d17c78024a50270940304540a733656f0d",
            "0x0000000000000000000000000000000000000000000000000000000000000000",
            "0x000000000000000000000000225b791581185b73eb52156942369843e8b0eec7",
            "0x0000000000000000000000002b480c63bde7c764cadbaa8b181405d770728128"
          ],
          "data": "0x",
          "blockHash": "0x25404725e3047d35da301492169e6f6ee932e926cb558ccf61a3a7da917ff852",
          "blockNumber": "0xf0cc61",
          "transactionHash": "0xd69f230a8be0d31be36040a2ec3866d39270a61fd06adf32a4caf6c7f3b9df55",
          "transactionIndex": "0x7",
          "logIndex": "0x10",
          "removed": false
        }
      ],
      "status": "0x1",
      "logsBloom": "0x00000004000000000000080000000000000000008000000000000000000000000008000000000000000000004000000000000000000000000000000000000000000000000000000000000000000000000000000000000000000000000000000000000000020000000000000000000800000000080000000000000000000000000000000000000000000000000000000000000000000000000000040000000000000000000000000000000000000000000000000020000000001000000000008000000000000000000000000000000000000000000000000100000000000020000002000000000000000000000000000000000000000000000000000000000000",
      "type": "0x2",
      "effectiveGasPrice": "0x258"
    }
  ],
  "libraries": [],
  "pending": [],
  "returns": {},
  "timestamp": 1727330215,
  "chain": 84532,
  "commit": "2bb590a"
}