{
  "transactions": [
    {
      "hash": "0xfbb45b8b50400cc8979a62350b817f58cdd74a342b3369edeb26e58e2851a026",
      "transactionType": "CALL",
      "contractName": null,
      "contractAddress": "0x0ed4202413E492Bb358eC7a3C4D1e7A39adb03F0",
      "function": "setAirdrop(address)",
      "arguments": [
        "0xE04925a3d47B857E3a2b09489928FcFa28033E9a"
      ],
      "transaction": {
        "type": "0x02",
        "from": "0x2b480c63bde7c764cadbaa8b181405d770728128",
        "to": "0x0ed4202413e492bb358ec7a3c4d1e7a39adb03f0",
        "gas": "0x12704",
        "value": "0x0",
        "data": "0x72820dbc000000000000000000000000e04925a3d47b857e3a2b09489928fcfa28033e9a",
        "nonce": "0x17",
        "accessList": []
      },
      "additionalContracts": [],
      "isFixedGasLimit": false
    },
    {
      "hash": "0x2cd5d2a928aadb6cd55235fed5e0787ab472de34ef758d8411d785d744c562fd",
      "transactionType": "CALL",
      "contractName": null,
      "contractAddress": "0x0ed4202413E492Bb358eC7a3C4D1e7A39adb03F0",
      "function": "setDevFund(address)",
      "arguments": [
        "0x0c97EEA93bdeb17a083dCB3cfc4ed48f56e825B9"
      ],
      "transaction": {
        "type": "0x02",
        "from": "0x2b480c63bde7c764cadbaa8b181405d770728128",
        "to": "0x0ed4202413e492bb358ec7a3c4d1e7a39adb03f0",
        "gas": "0x12704",
        "value": "0x0",
        "data": "0xae4db9190000000000000000000000000c97eea93bdeb17a083dcb3cfc4ed48f56e825b9",
        "nonce": "0x18",
        "accessList": []
      },
      "additionalContracts": [],
      "isFixedGasLimit": false
    },
    {
      "hash": "0x244c62e1a95f2dc7bb0f55467cb428192fffd7f99e5298981ee637b843253ba9",
      "transactionType": "CALL",
      "contractName": null,
      "contractAddress": "0x0ed4202413E492Bb358eC7a3C4D1e7A39adb03F0",
      "function": "setEntityForging(address)",
      "arguments": [
        "0x3f0b339FE6230D7252B31712135b62e316AEf108"
      ],
      "transaction": {
        "type": "0x02",
        "from": "0x2b480c63bde7c764cadbaa8b181405d770728128",
        "to": "0x0ed4202413e492bb358ec7a3c4d1e7a39adb03f0",
        "gas": "0x1169f",
        "value": "0x0",
        "data": "0xc0e24b130000000000000000000000003f0b339fe6230d7252b31712135b62e316aef108",
        "nonce": "0x19",
        "accessList": []
      },
      "additionalContracts": [],
      "isFixedGasLimit": false
    },
    {
      "hash": "0x0684f96242fe6093e489ece138c25ae068651c1b7112f66d20a4389d9b1f2111",
      "transactionType": "CALL",
      "contractName": null,
      "contractAddress": "0x0ed4202413E492Bb358eC7a3C4D1e7A39adb03F0",
      "function": "setEntityTrading(address)",
      "arguments": [
        "0xB59220565A2557614e58955DFd16C361b33E4d8A"
      ],
      "transaction": {
        "type": "0x02",
        "from": "0x2b480c63bde7c764cadbaa8b181405d770728128",
        "to": "0x0ed4202413e492bb358ec7a3c4d1e7a39adb03f0",
        "gas": "0x126e4",
        "value": "0x0",
        "data": "0x993c6666000000000000000000000000b59220565a2557614e58955dfd16c361b33e4d8a",
        "nonce": "0x1a",
        "accessList": []
      },
      "additionalContracts": [],
      "isFixedGasLimit": false
    },
    {
      "hash": "0x5a472c187c89e9b829443a997cb48a2e60eee8d0d9fbd8edeff6e77a99f090da",
      "transactionType": "CALL",
      "contractName": null,
      "contractAddress": "0x0ed4202413E492Bb358eC7a3C4D1e7A39adb03F0",
      "function": "setEntropyGenerator(address)",
      "arguments": [
        "0x625049380eFCef9E30E68110155523DF015F2d58"
      ],
      "transaction": {
        "type": "0x02",
        "from": "0x2b480c63bde7c764cadbaa8b181405d770728128",
        "to": "0x0ed4202413e492bb358ec7a3c4d1e7a39adb03f0",
        "gas": "0x116bb",
        "value": "0x0",
        "data": "0xf9541a70000000000000000000000000625049380efcef9e30e68110155523df015f2d58",
        "nonce": "0x1b",
        "accessList": []
      },
      "additionalContracts": [],
      "isFixedGasLimit": false
    },
    {
      "hash": "0x8a33a9a416394d13fe3af2c0ad226a0953ec9cd89df49ce16000f05eab912b3d",
      "transactionType": "CALL",
      "contractName": null,
      "contractAddress": "0x0ed4202413E492Bb358eC7a3C4D1e7A39adb03F0",
      "function": "setNukeFund(address)",
      "arguments": [
        "0x748b9bDAbdd769C8fF3B97500F3876B0edbbEa9F"
      ],
      "transaction": {
        "type": "0x02",
        "from": "0x2b480c63bde7c764cadbaa8b181405d770728128",
        "to": "0x0ed4202413e492bb358ec7a3c4d1e7a39adb03f0",
        "gas": "0x126e3",
        "value": "0x0",
        "data": "0xafa3fc26000000000000000000000000748b9bdabdd769c8ff3b97500f3876b0edbbea9f",
        "nonce": "0x1c",
        "accessList": []
      },
      "additionalContracts": [],
      "isFixedGasLimit": false
    },
    {
      "hash": "0x79f877e821c2bf5fd8646cca7f8c999c4206daa7c8bdc99a6b8b75ed01e88d61",
      "transactionType": "CALL",
      "contractName": null,
      "contractAddress": "0x0ed4202413E492Bb358eC7a3C4D1e7A39adb03F0",
      "function": "setTrait(address)",
      "arguments": [
        "0xc162901dE85fFB9c8098d4a658240C3E634Aaa01"
      ],
      "transaction": {
        "type": "0x02",
        "from": "0x2b480c63bde7c764cadbaa8b181405d770728128",
        "to": "0x0ed4202413e492bb358ec7a3c4d1e7a39adb03f0",
        "gas": "0x126e3",
        "value": "0x0",
        "data": "0x90a507fe000000000000000000000000c162901de85ffb9c8098d4a658240c3e634aaa01",
        "nonce": "0x1d",
        "accessList": []
      },
      "additionalContracts": [],
      "isFixedGasLimit": false
    },
    {
      "hash": "0x6f8f1b525f639990273e93cd4be0006e6764ed34d5865fde11a12d2c067e788e",
      "transactionType": "CALL",
      "contractName": null,
      "contractAddress": "0x0ed4202413E492Bb358eC7a3C4D1e7A39adb03F0",
      "function": "setTraitForgeNft(address)",
      "arguments": [
        "0x73aC286b7ffB888bB25D9952297A41f836b1e1BF"
      ],
      "transaction": {
        "type": "0x02",
        "from": "0x2b480c63bde7c764cadbaa8b181405d770728128",
        "to": "0x0ed4202413e492bb358ec7a3c4d1e7a39adb03f0",
        "gas": "0x1169f",
        "value": "0x0",
        "data": "0xe835ad6300000000000000000000000073ac286b7ffb888bb25d9952297a41f836b1e1bf",
        "nonce": "0x1e",
        "accessList": []
      },
      "additionalContracts": [],
      "isFixedGasLimit": false
    }
  ],
  "receipts": [
    {
      "transactionHash": "0xfbb45b8b50400cc8979a62350b817f58cdd74a342b3369edeb26e58e2851a026",
      "transactionIndex": "0x1",
      "blockHash": "0x6bec2f79220149dd7fea578d488d492a977c53fe629b73e04250d03858c3bc61",
      "blockNumber": "0xf06693",
      "from": "0x2B480c63bDe7C764cadBaA8b181405D770728128",
      "to": "0x0ed4202413E492Bb358eC7a3C4D1e7A39adb03F0",
      "cumulativeGasUsed": "0x174f8",
      "gasUsed": "0xc9b9",
      "contractAddress": null,
      "logs": [],
      "status": "0x1",
      "logsBloom": "0x00000000000000000000000000000000000000000000000000000000000000000000000000000000000000000000000000000000000000000000000000000000000000000000000000000000000000000000000000000000000000000000000000000000000000000000000000000000000000000000000000000000000000000000000000000000000000000000000000000000000000000000000000000000000000000000000000000000000000000000000000000000000000000000000000000000000000000000000000000000000000000000000000000000000000000000000000000000000000000000000000000000000000000000000000000000",
      "type": "0x2",
      "effectiveGasPrice": "0xb2d05f0e"
    },
    {
      "transactionHash": "0x2cd5d2a928aadb6cd55235fed5e0787ab472de34ef758d8411d785d744c562fd",
      "transactionIndex": "0x2",
      "blockHash": "0x6bec2f79220149dd7fea578d488d492a977c53fe629b73e04250d03858c3bc61",
      "blockNumber": "0xf06693",
      "from": "0x2B480c63bDe7C764cadBaA8b181405D770728128",
      "to": "0x0ed4202413E492Bb358eC7a3C4D1e7A39adb03F0",
      "cumulativeGasUsed": "0x23eb1",
      "gasUsed": "0xc9b9",
      "contractAddress": null,
      "logs": [],
      "status": "0x1",
      "logsBloom": "0x00000000000000000000000000000000000000000000000000000000000000000000000000000000000000000000000000000000000000000000000000000000000000000000000000000000000000000000000000000000000000000000000000000000000000000000000000000000000000000000000000000000000000000000000000000000000000000000000000000000000000000000000000000000000000000000000000000000000000000000000000000000000000000000000000000000000000000000000000000000000000000000000000000000000000000000000000000000000000000000000000000000000000000000000000000000",
      "type": "0x2",
      "effectiveGasPrice": "0xb2d05f0e"
    },
    {
      "transactionHash": "0x244c62e1a95f2dc7bb0f55467cb428192fffd7f99e5298981ee637b843253ba9",
      "transactionIndex": "0x3",
      "blockHash": "0x6bec2f79220149dd7fea578d488d492a977c53fe629b73e04250d03858c3bc61",
      "blockNumber": "0xf06693",
      "from": "0x2B480c63bDe7C764cadBaA8b181405D770728128",
      "to": "0x0ed4202413E492Bb358eC7a3C4D1e7A39adb03F0",
      "cumulativeGasUsed": "0x30869",
      "gasUsed": "0xc9b8",
      "contractAddress": null,
      "logs": [],
      "status": "0x1",
      "logsBloom": "0x00000000000000000000000000000000000000000000000000000000000000000000000000000000000000000000000000000000000000000000000000000000000000000000000000000000000000000000000000000000000000000000000000000000000000000000000000000000000000000000000000000000000000000000000000000000000000000000000000000000000000000000000000000000000000000000000000000000000000000000000000000000000000000000000000000000000000000000000000000000000000000000000000000000000000000000000000000000000000000000000000000000000000000000000000000000",
      "type": "0x2",
      "effectiveGasPrice": "0xb2d05f0e"
    },
    {
      "transactionHash": "0x0684f96242fe6093e489ece138c25ae068651c1b7112f66d20a4389d9b1f2111",
      "transactionIndex": "0x4",
      "blockHash": "0x6bec2f79220149dd7fea578d488d492a977c53fe629b73e04250d03858c3bc61",
      "blockNumber": "0xf06693",
      "from": "0x2B480c63bDe7C764cadBaA8b181405D770728128",
      "to": "0x0ed4202413E492Bb358eC7a3C4D1e7A39adb03F0",
      "cumulativeGasUsed": "0x3d20c",
      "gasUsed": "0xc9a3",
      "contractAddress": null,
      "logs": [],
      "status": "0x1",
      "logsBloom": "0x00000000000000000000000000000000000000000000000000000000000000000000000000000000000000000000000000000000000000000000000000000000000000000000000000000000000000000000000000000000000000000000000000000000000000000000000000000000000000000000000000000000000000000000000000000000000000000000000000000000000000000000000000000000000000000000000000000000000000000000000000000000000000000000000000000000000000000000000000000000000000000000000000000000000000000000000000000000000000000000000000000000000000000000000000000000",
      "type": "0x2",
      "effectiveGasPrice": "0xb2d05f0e"
    },
    {
      "transactionHash": "0x5a472c187c89e9b829443a997cb48a2e60eee8d0d9fbd8edeff6e77a99f090da",
      "transactionIndex": "0x5",
      "blockHash": "0x6bec2f79220149dd7fea578d488d492a977c53fe629b73e04250d03858c3bc61",
      "blockNumber": "0xf06693",
      "from": "0x2B480c63bDe7C764cadBaA8b181405D770728128",
      "to": "0x0ed4202413E492Bb358eC7a3C4D1e7A39adb03F0",
      "cumulativeGasUsed": "0x49bd9",
      "gasUsed": "0xc9cd",
      "contractAddress": null,
      "logs": [],
      "status": "0x1",
      "logsBloom": "0x00000000000000000000000000000000000000000000000000000000000000000000000000000000000000000000000000000000000000000000000000000000000000000000000000000000000000000000000000000000000000000000000000000000000000000000000000000000000000000000000000000000000000000000000000000000000000000000000000000000000000000000000000000000000000000000000000000000000000000000000000000000000000000000000000000000000000000000000000000000000000000000000000000000000000000000000000000000000000000000000000000000000000000000000000000000",
      "type": "0x2",
      "effectiveGasPrice": "0xb2d05f0e"
    },
    {
      "transactionHash": "0x8a33a9a416394d13fe3af2c0ad226a0953ec9cd89df49ce16000f05eab912b3d",
      "transactionIndex": "0x6",
      "blockHash": "0x6bec2f79220149dd7fea578d488d492a977c53fe629b73e04250d03858c3bc61",
      "blockNumber": "0xf06693",
      "from": "0x2B480c63bDe7C764cadBaA8b181405D770728128",
      "to": "0x0ed4202413E492Bb358eC7a3C4D1e7A39adb03F0",
      "cumulativeGasUsed": "0x5657b",
      "gasUsed": "0xc9a2",
      "contractAddress": null,
      "logs": [],
      "status": "0x1",
      "logsBloom": "0x00000000000000000000000000000000000000000000000000000000000000000000000000000000000000000000000000000000000000000000000000000000000000000000000000000000000000000000000000000000000000000000000000000000000000000000000000000000000000000000000000000000000000000000000000000000000000000000000000000000000000000000000000000000000000000000000000000000000000000000000000000000000000000000000000000000000000000000000000000000000000000000000000000000000000000000000000000000000000000000000000000000000000000000000000000000",
      "type": "0x2",
      "effectiveGasPrice": "0xb2d05f0e"
    },
    {
      "transactionHash": "0x79f877e821c2bf5fd8646cca7f8c999c4206daa7c8bdc99a6b8b75ed01e88d61",
      "transactionIndex": "0x7",
      "blockHash": "0x6bec2f79220149dd7fea578d488d492a977c53fe629b73e04250d03858c3bc61",
      "blockNumber": "0xf06693",
      "from": "0x2B480c63bDe7C764cadBaA8b181405D770728128",
      "to": "0x0ed4202413E492Bb358eC7a3C4D1e7A39adb03F0",
      "cumulativeGasUsed": "0x62f1d",
      "gasUsed": "0xc9a2",
      "contractAddress": null,
      "logs": [],
      "status": "0x1",
      "logsBloom": "0x00000000000000000000000000000000000000000000000000000000000000000000000000000000000000000000000000000000000000000000000000000000000000000000000000000000000000000000000000000000000000000000000000000000000000000000000000000000000000000000000000000000000000000000000000000000000000000000000000000000000000000000000000000000000000000000000000000000000000000000000000000000000000000000000000000000000000000000000000000000000000000000000000000000000000000000000000000000000000000000000000000000000000000000000000000000",
      "type": "0x2",
      "effectiveGasPrice": "0xb2d05f0e"
    },
    {
      "transactionHash": "0x6f8f1b525f639990273e93cd4be0006e6764ed34d5865fde11a12d2c067e788e",
      "transactionIndex": "0x1",
      "blockHash": "0x35bcb0cb7e1419a815622989d3cae698f3dd33392a422e37012afad8443bc9e8",
      "blockNumber": "0xf06694",
      "from": "0x2B480c63bDe7C764cadBaA8b181405D770728128",
      "to": "0x0ed4202413E492Bb358eC7a3C4D1e7A39adb03F0",
      "cumulativeGasUsed": "0x174f7",
      "gasUsed": "0xc9b8",
      "contractAddress": null,
      "logs": [],
      "status": "0x1",
      "logsBloom": "0x00000000000000000000000000000000000000000000000000000000000000000000000000000000000000000000000000000000000000000000000000000000000000000000000000000000000000000000000000000000000000000000000000000000000000000000000000000000000000000000000000000000000000000000000000000000000000000000000000000000000000000000000000000000000000000000000000000000000000000000000000000000000000000000000000000000000000000000000000000000000000000000000000000000000000000000000000000000000000000000000000000000000000000000000000000000",
      "type": "0x2",
      "effectiveGasPrice": "0xb2d05f0e"
    }
  ],
  "libraries": [],
  "pending": [],
  "returns": {},
  "timestamp": 1727278092,
  "chain": 84532,
  "commit": "b1c52c6"
}